:101B9F009002DFE5DBF0E064086003021DE79000D0
:101BAF0006E090032FF0900007E0700990032FE0FC
:101BBF00D3947F400690032F747FF0E49002DFF000
:101BCF00900001E0900330F0900000E0546060035B
:101BDF00021D60900330E0B40B004003021D5D90C6
:101BEF001BF5F8282873021D3E021CF9021D5D0229
:101BFF001D10021D5D021CC6021C16021D5D021C7B
:101C0F00D1021CEE021DED900003E024FE602114B2
:101C1F00603424E1606B2421707690033174FFF0FF
:101C2F00A3742FF0A374C4F09002DF7412F08066D7
:101C3F0090033174FFF0A3742FF0A374D6F09002C9
:101C4F00DF744BF08050900002E09002DFF0C394FD
:101C5F0004503DE075F003A42471F582E5F03430B3
:101C6F00F583E493FB740193FA740293F9900331B3
:101C7F00EBF0A3EAF0A3E9F01213119002DFF0806A
:101C8F0015900004E09002DFF0C39402400880003A
:101C9F009002DF74FFF09002DFE0FF90032FE0D39C
:101CAF009F4002EFF090032FE0FFC3940840057FA1
:101CBF0008021D9C021D9C900002E090032FF00271
:101CCF001DED90032EE0900000F090032FE0C394E1
:101CDF00015003021DED9002DF7401F0021DED9023
:101CEF000002E090032EF0021DED900000E0541F63
:101CFF00FFBF020A900004E0FF1231F48023021D9F
:101D0F00E7900000E0541F64027021900003E0FE92
:101D1F00900002E0FDED4E7010900004E0FF1231D4
:101D2F00229002DFEFF0021DED021DE7021DE7E436
:101D3F00900000F0A3F090032FE0FFC394029002F5
:101D4F00DF40067402F0021DEDEFF0021DED021DE3
:101D5F00E7900000E0FF546064206003021DEDEF88
:101D6F0030E765900330E024DF705B90033174013E
:101D7F00F0A37400F0A374CAF09002DF7407F09020
:101D8F00032FE0FFC3940840047F0880009002DF18
:101D9F00EFF07E0078007C007D01900331E0FBA323
:101DAF00E0FAA3E0F91212EB90032FE0FF9002DFAD
:101DBF00E0FEC3EF9E90032FF0EEFF900332E48F0F
:101DCF00F012141680188010900330E024E0600E9B
:101DDF0024FE600A800080009002DF74FFF0900202
:101DEF00DFE0FFB4FF0A90033074FFF075DCCF2201
:051DFF008FDD75DCC062
:011E040022BB
:102E1A00E49002DFF0900330E024FB605214705912
:102E2A0090032FE0FFC3940840047F0880009002BB
:102E3A00DFEFF07E0078007C007D01900331E0FB3B
:102E4A00A3E0FAA3E0F91212EB90032FE0FF90023D
:102E5A00DFE0FEC3EF9E90032FF0EEFF900332E413
:102E6A008FF01214169002DFE0F5DD63DC40229049
:0F2E7A00032FE04480F5E38003E4F5DD75DC020F
:012E89002226
:1033EF009002DFE5DBF0900330E06420701B30DEED
:1033FF0018AFDBFE78CA7C007D017B017A00790073
:0C340F001212EB123169E4F5DD63DC8081
:01341B00228E
:102FC4001201100100000008861A225700010201B4
:102FD400000109024B000201008032080B000202CA
:102FE400020103090400000102020100052400108B
:102FF400010524010000042402020524060001073F
:1030040005810310004009040100020A00000007C2
:0D3014000502024000000705820240000096
:1032B500FF33EFFF0003FF352FFF0003FF0003FF80
:1032C5000003FF0003FF0003FF0003FF0003FF2EC1
:1032D5001AFF000EFF35A3FF0003FF0003FF1B9F2E
:0C32E500FF0003FF0003FF0003FF0003D5
:0100030022DA
:102AF00030D965E5D9543024F0601D24F0602A24D3
:102B0000F060372430704FE5D9540F75F003A424DA
:102B1000B5F582E434328031E5D9540F75F003A461
:102B200024C4F582E434328020E5D9540F75F003D3
:102B3000A424D3F582E43432800FE5D9540F75F024
:102B400003A424E2F582E43432F583740193FA7429
:102B50000293F912155EC2D930D81575DC0275D210
:102B60001075D41275D612E4F5E3C2DAC2D9C2D810
:0E2B700030DA0AC2DAE5DA20E20375D8FF2275
:10312200EF24FE60161460262482602D24FE6016B1
:10313200047031E5D454BF44038006E5D4547F447F
:103142000CF5D47F0022E5D654BF44038006E5D6B1
:10315200547F440CF5D67F0022E5D254BF4403F5D8
:07316200D27F00227FFF2253
:1031F400EF24FE60191460272482602924FE6014E1
:1032040004702DE5D454BC4402F5D47F002253D479
:10321400737F0022E5D654BC4402F5D67F002253C6
:10322400D6737F0022E5D254BC4402F5D27F00223B
:033234007FFF22F7
:1030210004030904140342006500650070005000A8
:10303100690061006E006F0026034C0076003100CC
:103041003200390060007300200042006500650015
:10305100700020005000690061006E006F001203D3
:103061004D0072002E004C00760031003200390014
:0C307100FF3021FF3039FF305FFF3025B9
:1035420075A15575A1AAE5B954F84406F5B9E4F593
:02355200A122B4
:10327700C2EAE4F5E275EC0053EAF375DC0275EE99
:103287000A53EAEF43EA4075D21275E44A53EBFE5C
:1032970043EB0443EB0875D41275D8FF75E107D2E9
:0E32A700EAF5E375E22943D101F5D3F5D5220E
:102A5B00C29FD29EC29DC2CDC2CC4387809003340D
:102A6B0012152D00000104E47B0AFAF9F8900334E7
:102A7B00E0FCA3E0FDA3E0FEA3E0FF12147E9003B5
:102A8B0038EBF0900334E0FCA3E0FDA3E0FEA3E001
:102A9B00FFE47B0AFAF9F812147E90033412152125
:102AAB00900338E0C39405401F900334E0FCA3E08F
:102ABB00FDA3E0FEA3E02401FFE43EFEE43DFDE4C4
:102ACB003CFC900334121521E589540F4420F58901
:102ADB0043C9A0900334A3A3A3E0F404F58DD28ED5
:042AEB00D299D29C0E
:012AEF0022C4
:103577001235427F057E001234EE123277D2AF2227
:0E35870000000014002300000042005200610A
:101919004100D5004100D701620000DC0000000051
:1019290000000000000000000000000000000000AE
:10193900000000000000000000000000000000009E
:10194900000000000000000000000000000000008E
:10195900000000000000000000000000000000007E
:10196900000000000000000000000000000000006E
:10197900000000000000000000000000000000005E
:10198900000000000000000000000000000000004E
:10199900000000000000000000000000000000003E
:1019A900000000000000000000000000000000002E
:1019B900000000000000000000000000000000001E
:1019C900000000000000000000000000000000000E
:1019D90000000000000000000000000000000000FE
:1019E90000000000000000000000000000000000EE
:1019F90000000000000000000000000000000000DE
:101A090000000000000000000000000000000000CD
:101A190000000000000000000000000000000000BD
:101A290000000000000000000000000000000000AD
:101A3900000000000000000000000000000000009D
:101A4900000000000000000000000000000000008D
:101A5900000000000000000000000000000000007D
:101A6900000000000000000000000000000000006D
:101A7900000000000000000000000000000000005D
:101A8900000000000000000000000000000000004D
:101A9900000000000000000000000000000000003D
:101AA900000000000000000000000000000000002D
:101AB900000000000000000000000000000000001D
:101AC900000000000000000000000000000000000D
:101AD90000000000000000000000000000000000FD
:101AE90000000000000000000000000000000000ED
:101AF90000000000000000000000000000000000DD
:101B090000000000000000000000000000000000CC
:101B19000000000000000000000000004100DA158C
:101B29004100D2004102DE004100D9004100DB0042
:101B39004100D8004200D300004202DC000041000D
:061B4900D6004100D100AE
:101FFC00E49002F6F09002F37404F09002F3E0FD2A
:10200C00D3940550267F0A1234939002F4740AF08C
:10201C007D01E4FF1233979002F4E004F0E0D394D6
:10202C007540ED9002F3E004F080D09002F374015F
:10203C00F09002F3E0FFC394094003022136EF64F1
:10204C0001600AEF64046005EF640870389002F6D2
:10205C00E0FF6401602FEF6407602AE49002F4F063
:10206C009002F4E0FDC3940550469002F3E0900C0E
:10207C00B193FF1234937D017FFF1233979002F4DA
:10208C00E004F080DB9002F47403F09002F4E0FDC5
:10209C00C39405501B9002F3E0900CB193FF1234E3
:1020AC00937D017FFF1233979002F4E004F080DB04
:1020BC009002F6E0FFB401089002F3E064016021A5
:1020CC00EFB407089002F3E0640860159002F3E0A7
:1020DC00900CB193FF7D051234937D017FFF123379
:1020EC00979002F3E0FF640860379002F6E0FEEF91
:1020FC006E9002F36015E0FB900CB1932404FF90FA
:10210C0002FE7401F0A3F07D058013E0FB900CB18E
:10211C00932404FF9002FE7401F0A3F07D04122FAF
:10212C00619002F3E004F002203D7D067F0A123438
:10213C00939002F3740AF07D017F011233979002A1
:10214C00F3E004F0E0D3947540ED9002F6E07003F8
:10215C000221F1900CB19304FF7D0512349390028F
:10216C00F6E0900CB193049002F3F09002F6E0903C
:10217C000CB293FF9002F3E0C39F500F7D017F01DF
:10218C001233979002F3E004F080E09002F6E0B492
:10219C000106900CB19380099002F6E0900CB1937B
:1021AC00049002F5F09002F5E0FF7D061234939056
:1021BC0002F5E09002F3F09002F6E0900CB293FF7F
:1021CC009002F3E0C39F500F7D01E4FF1233979010
:1021DC0002F3E004F080E09002F6E0B407077D0122
:0521EC00E4FF1233972F
:0121F10022CB
:1025F300FE25E02487F582E43435F583740193FFE7
:09260300EE9002F8F07B047D0B5F
:0B260C009002F5EFF0A3EDF0A3EBF05F
:10261700E49002F9F09002F7E014FF9002F9E0FD70
:10262700C39F50319002F5E0FF123493E49002FA11
:10263700F09002F6E0FF9002FAE0C39F500F7D0191
:102647007FFF1233979002FAE004F080E49002F9DA
:10265700E004F080C09002F5E0FF9002F7E014FD7F
:102667001234937D017F3F1233977D017F7F1233B1
:1026770097E49002FAF07D017FFF1233979002FAF8
:10268700E004F0E0C3940740ED7D017F7F123397AC
:102697007D017F3F1233979002F5E02402FF9002FD
:1026A700F7E024FEFDA3E0FB9002FE7401F0E4A333
:0426B700F0022F619D
:0526BB009002F3EFF0B6
:1026C0009000D6E0FE6F70030227779002F3E025BA
:1026D000E02487F582E43435F5837401937002E4D5
:1026E000937003022777EE600D9000DBE0600790A7
:1026F00000D6E01225F39002F3E025E02487F5826E
:10270000E43435F583E4740193FF7D031234939030
:1027100002F47401F09002F4E0FFD3940B5018EF30
:10272000640660047F0080027FFF7D011233979072
:1027300002F4E004F080DE9002F3E0FE25E024875E
:10274000F582E43435F583740193FF9002F8EEF0DE
:102750007B037D0B12260C9002F3E09000D6F07004
:102760000EE0600B1225F39002F3E09000D6F0909B
:0727700000D6E09000DBF051
:01277700223F
:05159C0090033EEFF09A
:1015A100D3940750030216E79000D1E0900CB19359
:1015B10004FF7D051234939000D1E0900CB19304A7
:1015C10090033FF09000D1E0900CB293FF90033F65
:1015D100E0C39F500F7D01E4FF12339790033FE07A
:1015E10004F080E09000D1E06037900CB19304FFEB
:1015F1007D061234939000D1E0900CB19390033F9B
:10160100F09000D1E0900CB293FF90033FE0C39FB4
:10161100500F7D017F0112339790033FE004F0806A
:10162100E090033EE064017016900CB293FF7D05DB
:101631001234937D017F01123397900CB2801C907C
:10164100033EE064077023900CB993FF7D051234CB
:10165100937D017F01123397900CB9E493FF7D06CE
:101661001234937D01E4FF1233979000D1E06401BD
:101671007022900CB293FF7D051234937D017FFFA0
:10168100123397900CB2E493FF7D061234937D01DF
:101691007F0180169000D1E0B40712900CB9E49359
:1016A100FF7D051234937D017FFF1233979000D1A6
:1016B100E0900CB1932404FF9002FE7401F0A3F0BA
:1016C1007B0A7D04122F619000D1E0FB900CB19355
:1016D1002404FF9002FE7401F0A3F07D05122F6136
:1016E100E49000D1F0229000DBE0601925E024872E
:1016F100F582E43435F583740193FF74871226046F
:10170100E49000DBF090033EE0900CB19304FF7D88
:101711000612349390033EE0900CB1930490033F82
:10172100F090033EE0900CB293FF90033FE0C39F23
:10173100500F7D01E4FF12339790033FE004F080E6
:10174100E09000D1E0900CB19304FF7D0512349339
:101751009000D1E0900CB1930490033FF09000D140
:10176100E0900CB293FF90033FE0C39F500F7D01C7
:10177100E4FF12339790033FE004F080E090033FD1
:101781007401F090033FE0FFC39408507390033E4F
:10179100E0FEEF6E7049EE900CB1932404FF9002CD
:1017A100FE7401F0A3F07B0A7D05122F6190033EC8
:1017B100E0FB900CB1932404FF9002FE7401F0A3AE
:1017C100F07D04122F619000D1E0900CB1932404BC
:1017D100FF9002FE7401F0A3F07B0A7D0480169055
:1017E100033FE0FB900CB1932404FF9002FE7401CF
:1017F100F0A3F07D05122F6190033FE004F0808398
:1018010090033EE0900CB19304FF7D051234939058
:10181100033EE0900CB1930490033FF090033EE04F
:10182100900CB293FF90033FE0C39F500F7D017F67
:101831000112339790033FE004F080E09000D1E083
:101841006037900CB19304FF7D061234939000D160
:10185100E0900CB19390033FF09000D1E0900CB276
:1018610093FF90033FE0C39F500F7D017F0112332F
:101871009790033FE004F080E090033EE064017044
:1018810016900CB293FF7D051234937D017F0112F6
:101891003397900CB2801C90033EE0640770239054
:1018A1000CB993FF7D051234937D017F01123397AB
:1018B100900CB9E493FF7D061234937D01E4FF128D
:1018C10033979000D1E064017022900CB293FF7DB8
:1018D100051234937D017FFF123397900CB2E4938C
:1018E100FF7D061234937D017F0180169000D1E0C7
:1018F100B40712900CB9E493FF7D051234937D0176
:101901007FFF1233979000D1E0FF90033EE0FE6F1E
:0719110060059000D1EEF02B
:0119180022AC
:05277800900346EFF0A4
:10277D007D07E4FF123493E4900347F0900347E0A4
:10278D00FFC39480503CEF640A6022EF6419601D12
:10279D00EF64286018EF64386013EF6447600EEF44
:1027AD0064576009EF64666004EFB475067D01E45B
:1027BD00FF80047D017FF0123397900347E004F012
:1027CD0080BA900346E0FF605EC3940A5059E090D2
:1027DD000CB093FEEF900CB193C39E900348F09014
:1027ED000346E06401600AEE04FF7D071234938016
:1027FD0014900346E0900CB093FF7D071234939034
:10280D000348E004F0E4900347F0900348E014FF20
:10281D00900347E0C39F500F7D017FFF12339790C8
:07282D000347E004F080E323
:012834002281
:1031B0007E027F007D007B017A0079DC121564902D
:1031C00002F67440F0A37401F0A37400F0A374DC61
:1031D000F07B40E4FDFF122C0C9002F67440F0A34B
:1031E0007401F0A37400F0A374DCF07B80E4FD7F35
:0431F00040022C0C61
:100CE0009002E37402F0E4A3F0A3F0A3F0A374086D
:100CF000F0E4A3F0A3F0A3F0A3F0A3F0A3F0A3F01B
:100D0000A37480F0A3741EF0E4A3F0A3F0123505E1
:100D100012357743C6205392FD43930212341C537D
:100D2000C9EF7D01E4FF12332C7D0C7C02E4FF123D
:100D300033C0D28CC2A9D2AF53C9DF7D017F01126B
:100D4000332C7DF47C017F011233C0D28ED2ABD222
:100D5000AF20B10D30B1FD9000D5E004F0E05401BA
:100D6000F09000D5E0FF9000D7E06F7003020EB85E
:100D7000EFF0147003020EB224FE7003020E3F2443
:100D8000036003020EB81231B07B07E4FD7F40120E
:100D90002EFA7B08E4FD7F48122EFA7B09E4FD7FE2
:100DA00050122EFA7B14E4FD7F58122EFA7B15E4C4
:100DB000FD7F78122EFA7B027D027F40122EFA7B95
:100DC000037D027F49122EFA7B027D027F50122E94
:100DD000FA7B147D027F58122EFA7B157D027F78F4
:100DE000122EFA7B097D047F40122EFA7B147D04BB
:100DF0007F48122EFA7B167D047F60122EFAE4FBE8
:100E00007D047F70122EFA7B1A7D047F78122EFAF1
:100E10007B197D067F40122EFA7B147D067F4812D7
:100E20002EFA7B167D067F60122EFAE4FB7D067F8C
:100E300070122EFA7B1A7D067F78122EFA807912B4
:100E400031B0E49000D6F09000DA7415F0E490022E
:100E5000E4F09002DEF09000D9F09000DBF0121F79
:100E6000FCE4FF1226BB9002F87401F07B047D0BBA
:100E70007F1412260C9002F87402F07B047D0B7F25
:100E80002312260C9002F87404F0FB7D0B7F4212B3
:100E9000260C9002F87405F07B047D0B7F5212261D
:100EA0000C9002F87406F07B047D0B7F6112260C17
:100EB00080061231B0122DA41228359000D5E060C2
:100EC0000302104C1228F19000D8E0FB7A00900247
:100ED000F77402F0A314F0E4FD7F6E1229AD9000C8
:100EE000D8E0C3946440047B0B80027B18E4FD7F50
:100EF0005E122EFA9002DCE0FEA3E0FF7C007D642F
:100F00001213799000D3E0FCA3E0FD12138B900242
:100F1000E8EEF0A3EFF0F44E70069002E8F0A3F0D4
:100F20009002E8E0FAA3E0FB9002F77402F0A31449
:100F3000F07D027F6E1229ADC39002E9E0946490C7
:100F400002E8E0940040047B0B80027B187D027F66
:100F50005E122EFA9002DCE0FAA3E0FB7C007D0A30
:100F6000FFAE0212138B9002E8EEF0A3EFF07C00CC
:100F70007D0AAF03AE0212138BED240AFB7D047FC2
:100F800068122EFAC39002E9E0940A9002E8E09415
:100F900000501A7B187D047F51122EFA9002E8E06F
:100FA000FAA3E0FB9002F77401F0A380109002E82E
:100FB000E0FAA3E0FB9002F77402F0A314F07D04C2
:100FC0007F591229AD9000D3E0FEA3E0FF7C007DA5
:100FD0000A12138BED240AFB7D067F68122EFA900D
:100FE00000D3E0FEA3E0FF7C007D0A12138B900289
:100FF000E8EEF0FAA3EFF0FB9002F77402F0A3140E
:10100000F07D067F591229ADC39002E9E0940A9061
:1010100002E8E09400501A7B187D067F51122EFAE8
:101020009002E8E0FAA3E0FB9002F77401F0A380DD
:10103000109002E8E0FAA3E0FB9002F77402F0A33C
:1010400014F07D067F591229AD020D519000D5E0B4
:1010500064016003020D5130B20320B1FA20B203E3
:101060001231B0E49002E8F0A3F09002F1F09002A7
:10107000ECF0A3F09002F204F020B103020D5190C5
:1010800002F1E06401704E122B7E20B2EC9002EA75
:10109000E0FEA3E0FF9002E8E0FCA3E0FDD39FECBC
:1010A0009E4006A3ECF0A3EDF0E49002E8F0A3F07C
:1010B0009002F1F09002ECF0A3F09002F204F0FF45
:1010C000121E059002E6E0FF9002F2E0FD1221F20E
:1010D0001231B080A49002E9E004F070069002E8BA
:1010E000E004F0122D251224D39002E6E0FF9002D6
:1010F000F2E0FD1221F29002EEEEF0A3EFF090028A
:10110000E6E0FF7006A37408F0800FEF9002E7B4EA
:1011100001057410F080037418F09002E7E0FF906E
:1011200002EFE02F9002EEE03400C3648094805020
:10113000161230D57C007D041213E0AF059002E654
:10114000EFF07D011221F2D39002EDE094009002C5
:10115000ECE064809480500320B0129002F2E0FF33
:10116000121E059002ECEEF0A3EFF08003122E8A1F
:10117000C39002EDE094109002ECE0648094805003
:101180004B9002EEE0FEA3E0FFC39410EE64809467
:1011900080400BD3EF9420EE64809480402890022E
:1011A000E7E0FF9002EFE02FFF9002EEE03400FE58
:1011B000C3EF9410EE648094804011D3EF9420EE3E
:1011C0006480948050069002F17401F09002E8E08F
:1011D000FAA3E0FB9002F77404F0E4FD7F78122993
:1011E000ADE49002F2F09002E8E0FEA3E0FF7C00A4
:1011F0007D1412138B9002F0EFF0D3941D40037412
:101200001DF09002F0E0FFC3741E9FFFE49400FE07
:0B1210001234EEE49002E5F0021079C9
:030043000232F195
:1032F100C0E0C0F0C083C082C0D075D000C000C0A3
:1033010001C002C003C004C005C006C007122AF0F4
:10331100D007D006D005D004D003D002D001D00010
:0B332100D0D0D082D083D0F0D0E032BA
:10351C00E4F5E175E2067F64FE1234EEC2AF0238C8
:03352C000080FE1E
:0E359500EF4E600905A1EF1F70F61E80F322B5
:1034EE00AD07AC06ED4C600E7FE87E03123595ED10
:0734FE001D70F11C80EE229D
:101B4F00011800011900440314000000004103199B
:0D1B5F000041031800410312004103130070
:10350500E49000CAF0A374E1F0E4A3F0A3F0A3F003
:07351500A3F0A37408F022EB
:103169009000CDE0900314F09000CCE0900315F0AE
:103179009000CBE0900316F09000CAE0900317F09E
:103189007F3F7E427D0F7C00900314E0F8A3E0F9B5
:10319900A3E0FAA3E0FBD3121510400A900314121E
:0731A900152D0000E10022DA
:0C000E00E4F5D3E5D254FC4402F5D22204
:0C35A300E4F5D5E5D454FC4402F5D42234
:10352F0030DE0F7818A6DBE408F6E5D454F3440830
:03353F00F5D4229E
:10335F0090031BE09000D8F090031DE0FE90031C3B
:10336F00E0FDEDFF9000D3EEF0A3EFF090031FE030
:10337F00FE90031EE0FDEDFF9002DCEEF0A3EFF0F8
:01338F00221B
:102835007818E670030228F008E606244AF582E4D3
:102845003400F583E0FC900313E060030228E09078
:1028550000D5E0FF6401702D900312E0FEB4440939
:102865009000DAECF0C2A98072EE6459706D9000A8
:10287500D9ECF0E07004C2A98061D2A9E490033CD0
:10288500F0A3F08056EF7053900312E0B4AA0D90B8
:102895000318E07007A3F090031804F0900318E004
:1028A5006039900312E0FF900319E0FE04F0741AFA
:1028B5002EF582E43403F583EFF0EFB4550F900362
:1028C50019E0B4070812335FE4900318F090031978
:1028D500E0C394074005E4900318F0AF0490031299
:0B28E500ECF0781816E6700353D4F3F3
:0128F00022C5
:10004600003E5149453E0000427F4000004261515A
:100056004946002141454B31001814127F100027F4
:1000660045454539003C4A494930000171090503B7
:1000760000364949493600064949291E0000000054
:100086000000000000000000003E41414122007FC8
:100096004141221C007F49494941007F0909090164
:1000A600003E4149497A007C1211127C007F494981
:1000B6004936007F40404040007F020C027F007FAF
:1000C6000808087F00F0F8080838300000070F0815
:1000D600090F0F0000E0F01818F0E000000F0F0104
:1000E600010F0F0000F8F820C020F8F8000F0F00ED
:1000F60001000F0F00F8F88888880800000F0F0825
:100106000808080000F0F80808F8F00000070F08D3
:10011600080F070000F8F80000F8F8000003070CC5
:100126000C07030000F8F88888F87000000F0F002D
:10013600010F0E0000F0F8080838300000070F081D
:10014600080E060000F8F88888F87000000F0F0007
:100156000000000000F8F80000F8F80000070F089B
:10016600080F07000000F0F80868F8F00000070F15
:100176000B080F0700202030F8F8000000000000F0
:100186000F0F00000030380888F87000000C0E0BC6
:10019600090808000030388888F8700000060E0844
:1001A600080F07000000F8F800E0E0000003030273
:1001B600020F0F0200F8F88888880800000808086F
:1001C6000C07030000C0E07858C8800000070F083D
:1001D600080F070000080888E878180000000E0FCE
:1001E600010000000070F8C888F8700000070F08CA
:1001F600090F070000F0F80808F8F0000000090DE4
:100206000F03010000000060606000000000000CA9
:100216000C0C0000183C24BCD86030000006030D0E
:100226001E121E0C00000000000000000000000C62
:100236000C0C000000000080E078180000181E0773
:1002460001000000000000000000000000000000A7
:1002560000000000000808F8F80808000000000F79
:100266000F00000000F8F88888F87000000F0F08EB
:10027600080F0700C8C8C82828280801C8C8080CDD
:10028600480802C8C8C8080138380805484808069A
:10029600280801484848080328280808C8080748C5
:1002A60008063838080B4808012828080148480875
:1002B6000C28080438380801680806280807480882
:1002C60001484808064848080768080A280806C872
:1002D600C80801090805383808022808010908076E
:1002E6002828080309080868680801C9C8C8080357
:1002F600C808042829080B4849080B68680802281A
:1003060028080768680802C8C808082828080128B5
:100316000805282828080248080138380804C808AB
:1003260005C8C8C82828280801C8C8080B484808AE
:1003360002C8C8C8080138380805484808052828EA
:100346000801484848080328280808C808030C0676
:10035600024242060C08043838080118181010101A
:1003660010101818080148080128280801484808EC
:100376000B2828080438386868080628080748083B
:1003860001484808064848080668680809282808F1
:1003960005C8C8C8080628383808022808082828C2
:1003A60028080C68680801C8C8C8080180C0E07041
:1003B600B0B0B098888E8383838181938E8C888831
:1003C60098B0F0C0E08000000080C0E0FEFFFDBFF6
:1003D600AF2F2F0E03070F1EFFBF1F1F3F2F070054
:1003E60001000000E08000000080C0E0FEFFFDBFCD
:1003F600AF2F2F0E03070F1E3F7F5F3FFF8F0700B4
:10040600010000000010E080000380C0C0FEFFFD78
:10041600BFAF2F2F0E03070F1FFFBF1F3FFF8F0713
:10042600000101000C8080808080800001F0C08087
:100436008080C0E0E0FFFFFE5FD7171707010307C4
:100446000F7F5F0F1F7F4703000D80C040C0C0C0F5
:10045600C080F8E0C0C0C0E0F0F0FFFFFF2F6B0BDC
:100466000B0300010103073F2F070F3F2301000D78
:10047600C0E0A0E0E0E0E0C07CF0E0E0E0F0F8F80A
:10048600FFFFFF1735050501000201031F170307CC
:100496001F11000EE0F0D0F0F0F0F0E03E78F0F042
:1004A600F0F8FCFCFFFF7F0B1A02020004010F0BA1
:1004B60001030F08000EF0F8E8F8787878701F3C12
:1004C60078F8F8FCFEFEFF7F3F050D0101000507E9
:1004D6000500010107040006800007F8FCF4FCBCD7
:1004E600BCBC380F1E3C7CFCFE7FFFFF3F1F020694
:1004F60000070302000203020006C000058080FC1C
:10050600FEFA7E5E5E5E1C070F1E3EFE7F3F7FFF8D
:100516001F0F010300070101000201010006F0F0B0
:1005260000FFFF00F0F0030786FFFF060301F0E07F
:1005360000FFFE80FC00007CC0FEFF0080FC03077D
:1005460006FFFF011090909000FFFF030301F0E00B
:1005560000FFFE80FC00FCFE00FFFF00F8F000FE3E
:1005660080FEFFFE78FC131706FFFF0110101337FD
:1005760004FFFF080F17101001FFFF031311F0E02F
:1005860000FFFE00F000C000FFFE603C8000007C23
:10059600C0FEFF00F0F8434786FFFF26A3A027040E
:1005A600FFFF0008FF882F0000FFFF062321FCFF46
:1005B600FFFFFFFF3F3F3F3F0F1F3FFFFFFF3F3F55
:1005C600FFFFFFFFFFFCFFFFFFFFFF00007E7E7EB9
:1005D600787C7E7F7F7F7E0000FFFFFFFFFF3FFF6F
:1005E600FFFFFFFFFCFCFCFCFCFCFCFCFCFCFCFC39
:1005F600FFFFFFFFFF3F0008E0F030303030000221
:10060600F0F0C0C0F0F00002F0F0B0B07060000290
:10061600E0F03030F0E00002F0F030F0F030F0E0E2
:100626000001E0E09090909090001880800036F3F2
:10063600F73636F6E60001F0F707C1C13737F0C0E6
:1006460007C7E0303737E0C0030706F6F7B3B0B0A8
:10065600F7E70001F7F7000107F7F003E3F4343496
:10066600F4E4000F10100C041414121111111011DF
:10067600121212141C10002F0F0F0C0C0F07000182
:100686000F0F00010F0F00020F0F000103070C0CE4
:100696000C070300030F0F0101010E0E0001070FE7
:1006A6000C0C070700010F0F00020F0F002D80C072
:1006B60060A0A0A09088888C889090B0A0C0800090
:1006C600174040000140404040404040404000024A
:1006D600F0FCFC9C9CFCFCFCFCFCFCFCFCFCFCF02C
:1006E600F0002580001E80000F000980000208002F
:1006F60002080808080808080800028080FFFFFFB3
:10070600FFFFFF7F7F4F4F4F4F4F4F0F0F0F001FC2
:1007160080800003FFFFFFFF000280800005FEFED1
:10072600FE0002F0E00005F0F8F00002FFFFFFFF18
:1007360000028080800012FFF8F8E0E0808080C030
:10074600E0F8F8F8FEFEFEFFFFFFFFFFFFFFFF18D1
:100756000838380026FFFF010002FFFFFFFF0002F6
:10076600FFFF0001FCFE040001FFFFFF0C0C8F835E
:100776000001F0F00001809F3F7F7070FFFFFFFFD8
:100786000003FFFF001203070F1F1F7F7FFFFFFFFE
:10079600FFFFFFFFFFFFFFFFFF7F7F1F1707002AF7
:1007A6000103070707FFFFFFFF030301000203071B
:1007B6000E0CFFFFFF00021F3F20FFFF201F0F0050
:1007C60004FFFFFFFF03030301000A828282020285
:1007D600222222220202028282000301FF9F9F0739
:1007E6000701010707FF8080000202020202C2021F
:1007F6000202020282828282020232323222020223
:100806000202000F024242020202020200010F0F20
:100816000F0F00010101011111010100010F0F0F5E
:10082600000101311100010F0F00010D0D01111121
:10083600101F1F1F1F1000010D0101010101010DF5
:100846000D010002020017201010101010101010D9
:10085600202040C0800003101820002480E030389B
:100866001C0C0E0607C1F1F9F9FDFFFEFEFEFCF8B1
:10087600F0E18306080004C00021FE0300077FFFA5
:10088600FFFFFFFFFFFFFFFFFFFFFFFFFFFE00274A
:10089600030E3860C080000401070F0F1F1F3F3F83
:1008A6003F3F9F7F3F1F1310E04080000703000675
:1008B600408080001520C0010102020607070604D9
:1008C600FC040212C30100038040408001023D2265
:1008D600E6280001408000080102001701061830D2
:1008E600C0800003010C7090118E9860C02326040E
:1008F60003000222C181837C8001000B64C40010C6
:100906000402100C000501060C3020000301000350
:100916004083060408382422131B0C040201000835
:10092600C0000401001F8000050102000804180031
:100936000F002408141018000420002280E030184C
:100946000C0682C6C7E7E3E3E3E7E7E7C2C6840827
:100956001060C0000C040017FC070002FE03000232
:10096600F0FCFFFFFFFFFFFFFFFFFFFFFFFFFFFFA3
:10097600FFFEF801FE0009080005800013010E18AD
:1009860060C10E3860C38F3F7FFFFFFFFFFFFFFF91
:10099600FFFFFFFFFFFF7F3F0E074888902060C0E4
:1009A600800001C0000601000404000D8080800064
:1009B6000303061820C1010202040505057D070789
:1009C600E30301010006E09193641CA3E3340106EE
:1009D6001830C080001303040403000F0718709337
:1009E6008C906651D14E20000340C2030181F6402F
:1009F6009830C0800102000704000B0400150100B6
:100A060001020618310204043C4426331F0C040676
:100A1600030830002208200028004B80000380E0F5
:100A2600F0381C0402020101010101010103020662
:100A360004081060C2061830C08000040A0C1400B6
:100A460018FE010002FEFBF9F8F8F8F8F8F8F0F0E5
:100A5600E0C0800009F1FE00030106083040800076
:100A66000804001103020002010F3F7FFFFFFFFF92
:100A7600FFFFFFFFFFFFFE00058040301C2F2448CC
:100A860098A0C000030100060301000E02000C013D
:100A960001030307070707070F74C20203010002D9
:100AA600020204081030609987C438000904090955
:100AB600060022030F1C7060C7C909070001C08821
:100AC6000402010182DC408000074080001F040C04
:100AD6003060800006030204041927261B09080457
:100AE6000603000530400001010023010200090849
:100AF60000160027101820002580E030180C06028A
:100B060003010101010307050102021CF8F0E0C020
:100B1600060830C08060400004C0C0001BFC87800F
:100B2600001203070FFF000301060830408000078C
:100B36002050800015071F7ED880000E80C0309C94
:100B4600172020408000040100083020001A01030D
:100B56000206040404047C8C060203010002020C53
:100B660031C61860E0130E08F0000B1010000F409D
:100B7600001101061860C0804060A01038478080D0
:100B8600010203FDC08003001E200008040C306033
:100B96008000080102061C24271B11080C06010010
:100BA6000406080021080003C1222CF0608000061C
:100BB600081000080608000B002406002A80E03012
:100BC600180C04020207070303E1F9FFFEFEFEFC10
:100BD600F8F0E080000418001FF00003FC03000B8F
:100BE6000F3F7FFFFFFFFFFFFFFFFFFE000A0A0C1C
:100BF600140016031C70C0010E3860C0804080804F
:100C060000080103038347373F6340800007020C57
:100C1600106080606000044040000B90906000030C
:100C2600030608000201010303070424DC0C0C146C
:100C360032E283010001304080000140A01192445D
:100C460018E0000601030C1860C0001680000A03B5
:100C5600061860C083875C78A40343241001000350
:100C660007F080000310204000040100052040002A
:100C76000A010002010301001301010202041C26FD
:100C860033110804030031800008404000081000BA
:100C96000A020D024D029502BC0312037203DE0422
:100CA60058049A052A05CC0681074D000A192838EA
:100CB6004757667580AE2010B0C800104081FFA16E
:100CC600A6A83FA4D300D5F0D922DA12DB208D14D2
:0A0CD600AF01010303040405060743
:101B6C0041032208420323000041032500420326BF
:101B7C000080420328000042032A008041032C000D
:041B8C0041032D00E4
:0B239600900301EBF0A3EAF0A3E9F0D4
:1023A100E490030AF0A3F0900309E024FFFE9003F8
:1023B10008E034FF900310F0A3CEF0E490030CF09A
:1023C100A3F0900308E0FEA3E0FF90030CE0FCA360
:1023D100E0FDC39FEC9E40030224D2900301E0FB89
:1023E100A3E0FAA3E0F98D828C8312132AFF9003F4
:1023F10007E06F6003022486900310E0FEA3E0FF74
:10240100C390030DE09F90030CE09E5078E490038D
:102411000EF0A3F0900301E0FBA3E0FAA3E0F99032
:10242100030DE02401FF90030CE034008F82F5835B
:1024310012132AFFC390030FE09F90030EE0940054
:102441005033900307E0FF900304E0FBA3E0FAA3FD
:10245100E0F990030AE475F00112142C85F082F57D
:1024610083EF12135790030FE004F070A790030E4F
:10247100E004F0809F90030DE004F0704090030CA5
:10248100E004F08038900301E0FBA3E0FAA3E0F957
:1024910090030CE0FEA3E0F5828E8312132AFF90D5
:1024A1000304E0FBA3E0FAA3E0F990030AE475F06A
:1024B1000112142C85F082F583EF12135790030D4E
:1024C100E004F060030223C390030CE004F0022354
:0124D100C347
:0124D20022E7
:0835B9007F01AE071FEE70FA5E
:0135C10022E7
:10356600D297D2961235B9C2971235B9C29602359C
:01357600B99B
:0A35AF00C297D2961235B9D29722C6
:10001E00FD7F101234931235667F7812344E120023
:06002E00347F4012344E45
:0F003400D2971235B9D2961235B9C2960235B9A4
:06344800F583E493FAFF96
:02344E00AD07C8
:10345000E4FCED30E704D2978002C2971235B9D26E
:0F346000961235B9C296ED25E0FD0CECB408E3E9
:01346F00223A
:07339000F583E493FF7D01CA
:10339700AB05AA071235667F7812344E120034EB5C
:1033A70060047F408002E4FF12344E120034AF0203
:0933B70012344E1200340235AF4D
:10349300A907ED24B0FFE4FD123397E9540FFFE4CD
:1034A300FD123397E954F0C4540F4410FFE4FD02B6
:0234B30033974D
:10341C0078F37C027D017BFF7A0C79BB7E007F1CEC
:10342C001212EBE4F974F329F582E43402F583E02B
:0B343C00FFE4FD12339709E9B41CEA1D
:013447002262
:102F6100E4900300F0F9EBF0EFD3947E4003E4FF2B
:102F71000D123493E4F99002FFE0701EA3E075F0A6
:102F810006A42446F582E43400F583E58229F5821E
:102F9100E43583F583E493F4801D900300E075F03C
:102FA10006A42446F582E43400F583E58229F582FE
:102FB100E43583F583E493FF7D0112339709E9B486
:022FC10006B454
:012FC30022EB
:0D2EFA009002FDEBF09002FBEFF0A3EDF075
:102F0700E4F9123493E4F99002FDE075F010A42976
:102F1700F582E435F0F583E58224CAF582E583344A
:102F27000012339009E9B408DE9002FBE0FFA3E04A
:102F370004FD123493E4F99002FDE075F010A42922
:102F4700F582E435F0F583E58224D2F582E5833412
:092F57000012339009E9B408DE10
:012F6000224E
:0E29AD009002F3EFF0A3EDF0A3EAF0A3EBF03D
:1029BB00E49002F9F09002F7E0FF9002F9E0FEC319
:1029CB009F4003022A5A9002F8E0602EEE75F00841
:1029DB00A4FF9002F3E0C39FFFC0079002F5E0FE57
:1029EB00A3E0FF7C007D0A12138BED240AFB9002FF
:1029FB00F4E0FDD007122EFA80359002F9E075F065
:102A0B0006A4FF9002F3E0C39FFFC0079002F5E01E
:102A1B00FEA3E0FF7C007D0A12138BAB05E4900252
:102A2B00FEF0A304F09002F4E0FDD007122F6190AA
:102A3B0002F5E0FEA3E0FF7C007D0A12138B9002EF
:0F2A4B00F5EEF0A3EFF09002F9E004F00229C0DD
:012A5A002259
:0A2C0C009002F3EFF09002F5EBF0F8
:102C1600E49002FAF0A3F09002F6E0FF5407700980
:102C2600EF131313541FF0800B9002F6E0131313E7
:102C3600541F04F09002FDEDF09002F6E0FF9002C2
:102C4600FDE0FDC39F504B9002F3E0FF123493E08A
:102C56009002FCF09002F5E0FF9002FCE0C39F506A
:102C6600299002F7E0FBA3E0FAA3E0F9A3E475F0EC
:102C76000112142C85F082F58312132AFF7D0112AE
:102C860033979002FCE004F080CA9002FDE004F065
:022C960080A715
:012C98002219
:102B7E00E49002F3F0A3F0A37402F09002F5E0FDEE
:102B8E00C3940550317F34120021E4FB9002F3E42C
:102B9E0075F00112142CFE74B425F0F58274053E06
:102BAE001234481200340BEBB418E11235AF900218
:102BBE00F5E004F080C5E4FB7D037F0A122EFA7B5C
:102BCE00017D037F12122EFA7B027D037F1A122ED5
:102BDE00FA7B037D037F22122EFA7B047D037F5640
:102BEE00122EFA7B057D037F5E122EFA7B037D0388
:0E2BFE007F66122EFA7B067D037F6E022EFA92
:0E307D00C39FFDE49EFC7B107A007F107E0056
:10308B00900303EAF0A3EBF0900301EEF0A3EFF053
:10309B00120021E4FBFAD3900304E09B900303E0BE
:1030AB009A4024900302E02BFF900301E03AFED3F9
:1030BB00EF9480EE9400500FE4FF12344E12003464
:0A30CB000BBB00010A80CF0235AFF5
:051E05009002F3EFF074
:101E0A0078F47C027D017BFF7A0C79D77E007F090A
:101E1A001212EBE49002FDF0A3F0900300F090029E
:101E2A00F3E0B40113E4900323F0A3F0A3F09003CA
:101E3A00227408F0E4FEFF22900325E0FF7035903B
:101E4A000322E0FD3395E0FC74F42DF58274023C24
:101E5A00F583E0FD3395E0FC900324E02DF0900338
:101E6A0023E03CF0900322E014F0E0C36480948005
:101E7A005002E4F0EFB40137900322E0FF3395E01B
:101E8A00FE74F42FF58274023EF583E0FF3395E089
:101E9A00FEC3900324E09FF0900323E09EF090039A
:101EAA0022E004F0E0D36480948840037408F0C30D
:101EBA00900324E0941F900323E064809480400FF1
:101ECA009003257401F0900323E4F0A3741FF0D368
:101EDA00900324E09400900323E064809480500BE4
:101EEA00E4900325F0900323F0A3F0900323E0FE8F
:101EFA00A3E0FFD39407EE648094805007E4900334
:101F0A0000F0803CD3EF940FEE64809480500890E8
:101F1A0003007401F08029D3EF9417EE6480948053
:101F2A0050089003007402F08016D3EF941FEE64F9
:101F3A0080948090030050057403F080037404F0C9
:101F4A009003047401F0A37400F0A374DCF0E4A31A
:101F5A00F0A304F0A3741AF07BFF7A04790A12231F
:101F6A0096E49002FFF09002FFE0FFC39403505002
:101F7A00A3E0FEC374059EFEEF2E12001EE4FB9042
:101F8A0002FFE075F010A4FFEB7C002FFEEC35F0A9
:101F9A009002FDF0A3CEF09002FDE0FEA3E024DC67
:101FAA00F58274003EF583E0FAFF12344E120034D3
:101FBA000BEBB410CA1235AF9002FFE004F080A612
:101FCA00900325E0700E900300E0FF3395E0FE7465
:101FDA000812307D900325E0B4010E900300E0FF63
:101FEA003395E0FE740412307D900323E0FEA3E0F3
:011FFA00FFE7
:011FFB0022C3
:0521F2009002F3EFF084
:1021F700A37405F0E4A3F0A3F0A3F0A3F0A3F0A366
:10220700F0EDB40121900326E4F0A37480F090026E
:10221700F4E0FB3395E0FA7D067C00E4FFFE123024
:102227008B7E007F80229002F3E0FF700A9002F716
:10223700F0A37408F08021EFB4010B9002F7E4F0EB
:10224700A37410F08012EF64026004EFB4030990E6
:1022570002F7E4F0A37418F0E49002FBF09002FB9D
:10226700E0FFC394024003022351900326E0FCA33E
:10227700E0FDC3EC648094805015C3E49DFDE49CAD
:102287009002F5F0A3EDF0EF2406FDE4FF800D903A
:102297000326A3E0FF9002FBE02406FD123493120D
:1022A70000249002F5A3E0FBEBFFD39002F8E09F38
:1022B7007480F89002F7E0648098500302234590F9
:1022C7000327E02FFF900326E03400FED3EF947F2F
:1022D700EE6480948050679002FBE0FF7E009002DE
:1022E700F7E0FCA3E0FD121379EB7C002FFFEC3E37
:1022F700A3F0A3EFF09002F3E0FF700A9002F9A3B6
:10230700E09005248024EFB4010A9002F9A3E0903D
:10231700053480169002F3E09002F9B40207A3E0B7
:102327009005548005A3E0900584939002FCF090FB
:1023370002FCE0FF12344E1200340B0222AF1235BA
:10234700AF9002FBE004F00222649002F7E0FEA3E4
:10235700E0FF900327E02FFF900326E03EFE900268
:10236700F4E0FB3395E0FA7D067C0012308B900297
:10237700F4E0FF3395E0FEC3900327E09FFD900351
:0E23870026E09EFCF0A3EDF0EF2DFFEE3CFEF5
:012395002225
:102D25009002F37405F0A37402F0A3E4F090030499
:102D350004F0A37400F0A374DCF0A37408F0A3748A
:102D450001F0A37438F07BFF7A02797A1223967D1D
:102D550007E4FF120021E4FBEBFF900329E02FFFBE
:102D6500900328E03400FE9002F4E0FCA3E0FD129D
:102D7500138B74DC2DF58274003CF583E0FF12346F
:102D85004E1200340BEBB480CF1235AF9002F3E056
:0E2D9500FF900329E02FF0900328E03400F0B7
:012DA300220D
:1024D3009002F37403F0E4A3F0A3F0A3F0A3741841
:1024E300F090032BE02418FF90032AE03400FE90C1
:1024F30002F3E0FD3395E0FCC3E49DFDE49CFCD3D3
:10250300EF9DEC6480F8EE648098501890032AE401
:10251300F0A37480F01230D57C007D031213E09099
:10252300032CEDF090032AE0FEA3E0FFC3EE6480EA
:1025330094805017C3E49FFFE49E9002F4F0A3EF4E
:10254300F090032CE004FDE4FF800A90032AA3E04B
:10255300FFA3E004FD1234931200249002F4E0FE82
:10256300A3E0FBAA069002F3E0FF3395E0FE90029E
:10257300F7E02FFF9002F6E03EFEC3EB9FEE648090
:10258300F8EA648098504F90032BE02BFF90032AC6
:10259300E03AFED3EF947FEE648094805038D3907A
:1025A30002F7E09BEA6480F89002F6E064809840CA
:1025B3000E74B22BF58274033AF583E4938001E43D
:1025C3009002F8F09002F8E0FF12344E1200340B40
:1025D300BB00010A808F1235AF9002F3E0FF339501
:0F25E300E0FEC390032BE09FF090032AE09EF0F0
:0125F20022C6
:102E8A00E49002F3F0A3F090032DE004F0E0540183
:102E9A00F0E49002F5F09002F5E0FFC39402504F7F
:102EAA00EF240612001EE4FB9002F5E075F010A470
:102EBA00FFEB7C002FFFEC35F09002F3F0A3EFF06C
:102ECA0090032DE0C43354E024CAF582E43403F5B8
:102EDA0083E5822FF582E435831234481200340BDD
:0F2EEA00EBB410C41235AF9002F5E004F080A7EE
:012EF90022B6
:102DA4009003047401F0A37400F0A374DCF0E4A3B2
:102DB400F0A3F0A374F3F07BFF7A0579FC12239659
:102DC4009002F67420F0A37401F0A37400F0A374CD
:102DD400DCF07B80E4FDFF122C0C9003047401F002
:102DE400A37400F0A374DCF0E4A3F0A304F0A374D0
:102DF4005CF07BFF7A0679EF1223969002F674401A
:102E0400F0A37401F0A37400F0A374DCF07B807D64
:062E140004E4FF022C0C97
:1034B5009002F6743FF0A37401F0A37400F0A374B6
:1034C500DCF07B3FE4FDFF122C0C7F027E00023412
:0134D500EE08
:1028F1009003047401F0A37400F0A374DCF0E4A36A
:10290100F0A3F0A374ECF07BFF7A08794B122396C5
:102911001234B51228359003047401F0A37400F049
:10292100A374DCF0E4A3F0A3F0A374E8F07BFF7AD6
:102931000979371223961234B5122835900304749D
:1029410001F0A37400F0A374DCF0E4A3F0A3F0A3FE
:1029510074D9F07BFF7A0A791F12239630B14C1299
:1029610034B59003047401F0A37400F0A374DCF097
:10297100E4A3F0A3F0A374C6F07BFF7A0A79F812FE
:1029810023961234B51228359003047401F0A37410
:1029910000F0A374DCF0E4A3F0A3F0A374D9F07BFE
:0C29A100FF7A0B79BE1223961234B52287
:0E1B900042033901F441033B0042033C0000D4
:10332C00EF7009E58954F04DF5898024EFB4011153
:10333C00CFEDCFEFC454F0FFE589540F4FF58980E2
:10334C000FEFB40208C2CDC2CCC2C880037FFF22EB
:03335C007F0022CD
:1033C000C3E49DFDE49CFCEF7007EDF58AECF58C01
:1033D00022EFB40107EDF58BECF58D22EFB4020E70
:0E33E000CFEDCFEDF5CC8FCAECFFF5CD8FCB46
:0133EE0022BC
:10355400C2CDC2CCC2C9D2CBD2C8EF25E025E0424D
:02356400C9227A
:1034D600C2CDC2CCD2C8C2C9EF25E025E0FFE5C9FE
:0834E60054FD4F4401F5C92219
:03000B000234704C
:10347000C0E0C083C082C0D075D008B29590033937
:10348000E0FCA3E0FDE4FF1233C0D0D0D082D083B3
:03349000D0E03257
:03001B0002323777
:10323700C0E0C083C082C0D075D01090033DE004C9
:10324700F0700690033CE004F090033CE0B4010EFC
:10325700A3E0B45E09C2A990033CE4F0A3F07DD0DB
:103267007C077F011233C0D0D0D082D083D0E03228
:03000000022C9936
:0C2C9900787FE4F6D8FD758119022CE06C
:10121B00E709F608DFFA8046E709F208DFFA803EB5
:10122B0088828C83E709F0A3DFFA8032E309F608A2
:10123B00DFFA8078E309F208DFFA807088828C830A
:10124B00E309F0A3DFFA806489828A83E0A3F608BE
:10125B00DFFA805889828A83E0A3F208DFFA804C98
:10126B0080D280FA80C680D4806980F2803380106F
:10127B0080A680EA809A80A880DA80E280CA8033D8
:10128B0089828A83ECFAE493A3C8C582C8CCC58350
:10129B00CCF0A3C8C582C8CCC583CCDFE9DEE78020
:1012AB000D89828A83E493A3F608DFF9ECFAA9F09F
:1012BB00EDFB2289828A83ECFAE0A3C8C582C8CCF5
:1012CB00C583CCF0A3C8C582C8CCC583CCDFEADE0E
:1012DB00E880DB89828A83E493A3F208DFF980CC70
:1012EB0088F0EF60010E4E60C388F0ED2402B40469
:1012FB000050B9F582EB2402B4040050AF23234510
:06130B00822390126B73B7
:10131100BB010689828A83E0225002E722BBFE02DA
:09132100E32289828A83E493220D
:10132A00BB010CE58229F582E5833AF583E0225078
:10133A0006E92582F8E622BBFE06E92582F8E222C2
:0D134A00E58229F582E5833AF583E49322DC
:10135700F8BB010DE58229F582E5833AF583E8F0CC
:10136700225006E92582C8F622BBFE05E92582C878
:02137700F22260
:10137900EF8DF0A4A8F0CF8CF0A428CE8DF0A42E88
:02138900FE2242
:10138B00BC000BBE0029EF8DF084FFADF022E4CC46
:10139B00F875F008EF2FFFEE33FEEC33FCEE9DEC0F
:1013AB00984005FCEE9DFE0FD5F0E9E4CEFD22ED55
:1013BB00F8F5F0EE8420D21CFEADF075F008EF2F9F
:1013CB00FFED33FD4007985006D5F0F222C398FD90
:0513DB000FD5F0EA222D
:1013E000C2D5EC30E709B2D5E4C39DFDE49CFCEE28
:1013F00030E715B2D5E4C39FFFE49EFE12138BC302
:10140000E49DFDE49CFC800312138B30D507C3E4FC
:061410009FFFE49EFE2296
:10141600C5F0F8A3E028F0C5F0F8E5821582700261
:061426001583E038F022FE
:10142C00A3F8E0C5F025F0F0E58215827002158373
:06143C00E0C838F0E822D0
:1014420075F008758200EF2FFFEE33FECD33CDCC61
:1014520033CCC58233C5829BED9AEC99E5829840E4
:101462000CF582EE9BFEED9AFDEC99FC0FD5F0D6C1
:10147200E4CEFBE4CDFAE4CCF9A88222B800C1B9EB
:101482000059BA002DEC8BF084CFCECDFCE5F0CB29
:10149200F97818EF2FFFEE33FEED33FDEC33FCEB62
:1014A20033FB10D703994004EB99FB0FD8E5E4F91D
:1014B200FA227818EF2FFFEE33FEED33FDEC33FC0A
:1014C200C933C910D7059BE99A4007EC9BFCE99AFE
:1014D200F90FD8E0E4C9FAE4CCFB2275F010EF2F43
:1014E200FFEE33FEED33FDCC33CCC833C810D70743
:1014F2009BEC9AE899400AED9BFDEC9AFCE899F87E
:0E1502000FD5F0DAE4CDFBE4CCFAE4C8F92210
:10151000EB9FF5F0EA9E42F0E99D42F0E89C45F031
:0115200022A8
:0C152100ECF0A3EDF0A3EEF0A3EFF0223D
:10152D00A8828583F0D083D08212154412154412FF
:10153D001544121544E473E493A3C583C5F0C58324
:10154D00C8C582C8F0A3C583C5F0C583C8C582C808
:01155D00226B
:06155E008A838982E47318
:1030D5009003421215907810EC4D4E4F70047CA56C
:1030E5007DA5C3EC13FCED13FDEE13FEEF13FF50AE
:1030F50010EC64CCFCED644CFDEE644EFEEF64CE4A
:10310500FFD8DF900342121521EE547FFE22900373
:0D31150042EEF0EFA3F0A374A5F0A3F022AA
:10156400EF4E6012EF60010EEDBB010B89828A839E
:10157400F0A3DFFCDEFA2289F05007F709DFFCA9AB
:0C158400F022BBFEFCF309DFFCA9F02202
:102CA500020CE0E493A3F8E493A34003F68001F259
:102CB50008DFF48029E493A3F85407240CC8C33330
:102CC500C4540F4420C8834004F456800146F6DFFF
:102CD500E4800B0102040810204080901919E47E5D
:102CE500019360BCA3FF543F30E509541FFEE493F4
:102CF500A360010ECF54C025E060A840B8E493A3BB
:102D0500FAE493A3F8E493A3C8C582C8CAC583CAE5
:102D1500F0A3C8C582C8CAC583CADFE9DEE780BE9D
:011B9E000046
:0C159000E0FCA3E0FDA3E0FEA3E0FF22CE
:00000001FF
